:04000000F1EF01F02B
:08000800046ED8CF05F0E0CF33
:1000100006F00001E9CF0CF0EACF07F0E1CF08F0DD
:10002000E2CF09F0D9CF0AF0DACF0BF0F3CF12F01C
:10003000F4CF13F0FACF14F0F5CF15F0F6CF16F099
:10004000F7CF17F000C00EF001C00FF002C010F0A3
:1000500003C011F0F2AA30EF00F0F2B47CEF00F030
:100060009DA036EF00F09EB004EF01F00EC000F04E
:100070000FC001F010C002F011C003F00CC0E9FF86
:1000800007C0EAFF078E08C0E1FF09C0E2FF0AC00F
:10009000D9FF0BC0DAFF12C0F3FF13C0F4FF14C086
:1000A000FAFF15C0F5FF16C0F6FF17C0F7FF0450A2
:1000B00006C0E0FF05C0D8FF10003650070B006EE9
:1000C0003630016E013201321F0E01160150382404
:1000D000E96E000E3920EA6E016A012A002A01D079
:1000E0000136002EFDD7375203E00150EF1203D046
:1000F000011E0150EF161200D7689B0ED66E346AAF
:100100003450010830E3036A3450250FE96E000EC5
:100110000320EA6EEF50245C13E2036A34501A0F96
:10012000E96E000E0320EA6EEFCF35F035C036F0F1
:10013000010E376E0F0E396E890E386EBEDF11D08C
:10014000036A34501A0FE96E000E0320EA6EEFCFF7
:1001500035F035C036F0376A0F0E396E890E386EBD
:10016000ACDF342ACDD7242A2450C8081EE2246AE2
:10017000346A3450010819E3036A3450250F016EC4
:10018000000E032203C036F0036A34501C0FE96EE0
:10019000000E0320EA6EEFCF37F036C0EAFF01C051
:1001A000E9FF37C0EFFF342AE4D7F29436EF00F0CE
:1001B0003750070B006E3730016E013201321F0ECF
:1001C000011601503824E96E000E3920EA6EEFCF97
:1001D00001F0002A01D00132002EFDD71200036A7F
:1001E00035501E0FE96E000E0320EA6EEFCF36F099
:1001F00036C037F00F0E396E800E386ED9DF000E24
:1002000001B0010E016E1200B10ECF6EDF0ECE6E88
:10021000285203E1275009085CE2286A276A346AF9
:100220003450010856E334C035F0D9DF01C035F051
:10023000036A3450290FE96E000E0320EA6EEF5076
:10024000015C1FE1D8903434036A200FE96E000E80
:100250000320EA6EECCF36F0ED52EFCF35F0353CAF
:1002600003D0363C01D00CD0D8903434036A200F30
:10027000E96E000E0320EA6E010EEE2601E3EF2A7E
:1002800026D0D8903434036A200FE96E000E032084
:10029000EA6EEC6AED52EF6A036A3450290F016E80
:1002A000000E032201C035F003C036F0036A34505B
:1002B000290FE96E000E0320EA6EEF5202E0000EF5
:1002C00001D0010E36C0EAFF35C0E9FFEF6E342AD7
:1002D000A7D7272AD8B4282A9E9036EF00F03250AC
:1002E000016A315C03E231C000F00CD0006A080EF4
:1002F000336E313600363250005CD8B0006E0136B5
:10030000332EF7D71200200E2CA8300E2D6E2BC0E6
:1003100000F02BAE08D0001E002A00C02BF02D0EDE
:100320002D6E2C8E2C8001502BC031F0640E326E5D
:10033000D6DF00C02BF0300E01242E6E2BC031F022
:100340000A0E326ECCDF300E0024306E300E0124E7
:100350002F6E2DC000F0300E2E5C04E02C822CBEDF
:100360002C8412D02DC02EF0200E2D6E300E2F5C5E
:1003700004E02C802CBE2C8207D0D8A42C8004E171
:100380002EC02FF0200E2E6E2CB405D02CB207D02C
:100390002CB009D00CD02D509EA8FED7AD6E2E509B
:1003A0009EA8FED7AD6E2F509EA8FED7AD6E3050E2
:1003B0009EA8FED7AD6E1200EA6A2B0EE96EEF50D2
:1003C0000EE0140E016E006A002EFED7012EFBD740
:1003D000BF0E006E002EFED700D0EF2EF2D797EFA3
:1003E00002F0F86AD09E078EEA6AE96A700ED36E50
:1003F0009B8C9B9EB886400EAF6E030EB06EA60E11
:10040000AC6E900EAB6E246A286A276AC150F00B5E
:10041000C16E000E0F01386F3C6F396F3A6F3B6F42
:10042000776A786A796A080E1A6E090E1B6E1C6A62
:100430001D6A140E1E6E150E1F6E2068216822683C
:100440002368256A266A296A2A6A800E926E936E4C
:10045000300E946E830ED56E370ECD6ECC6AF28A56
:100460009D80C00EF21289808982899089922152E2
:1004700022E1205004081FE3196AF2BE198EF29E91
:10048000356A0001ACDE19BEF28E015202E00C0E9C
:1004900001D00F0E1C6E196AF2BE198EF29E356ADB
:1004A0009EDE19BEF28E015202E00F0E01D0120E36
:1004B0001D6E14D00F01215203E1205009080AE2F9
:1004C000215208E120500E0805E30F0E1D6E1DC0DD
:1004D0001CF003D01D6A1DC01CF00001010E2B6E24
:1004E000200E9EA8FED7AD6E2B2EFAD71CC02BF087
:1004F000170E2C6E08DF2C0E9EA8FED7AD6E010ED7
:100500002B6E200E9EA8FED7AD6E2B2EFAD71DC0E7
:100510002BF0170E2C6EF7DE0D0E9EA8FED7AD6EDB
:100520000A0E9EA8FED7AD6E0A0E2B6E45D70F01A0
:040530009ED703004F
:020000040030CA
:0E00000000F9183C003F81000FC00FE00F40D8
:00000001FF
;PIC18F26K22
;CRC=3EBA  CREATED="11-9-18 23:33"
