:0400000079EF03F0A1
:08000800046ED8CF05F0E0CF33
:1000100006F00001E9CF0CF0EACF07F0E1CF08F0DD
:10002000E2CF09F0D9CF0AF0DACF0BF0F3CF12F01C
:10003000F4CF13F0FACF14F0F5CF15F0F6CF16F099
:10004000F7CF17F000C00EF001C00FF002C010F0A3
:1000500003C011F0F2AA30EF00F0F2B413EF01F098
:100060009DA036EF00F09EB0B7EF01F00EC000F09B
:100070000FC001F010C002F011C003F00CC0E9FF86
:1000800007C0EAFF078E08C0E1FF09C0E2FF0AC00F
:10009000D9FF0BC0DAFF12C0F3FF13C0F4FF14C086
:1000A000FAFF15C0F5FF16C0F6FF17C0F7FF0450A2
:1000B00006C0E0FF05C0D8FF10004250070B006EDD
:1000C0004230016E013201321F0E011601504424EC
:1000D000E96E000E4520EA6E016A012A002A01D06D
:1000E0000136002EFDD7435203E00150EF1203D03A
:1000F000011E0150EF163AEF01F04750D8B471D00D
:10010000006E4B50D8B46DD0002604E3810E00265B
:1001100068E204D07F0E005E64E363E048C04FF005
:100120004C504F1A488E4C8E4A504E02F4CF51F02C
:1001300049504D02F4CF03F0F3CF50F04E02F3508C
:100140005126F4505022000E03224A504D02F35023
:100150005126F4505022000E026A03220222485017
:100160004E02F3505026F4500322000E0222485053
:100170004D02F3500326F4500222000E016A0122C0
:100180004A504C02F3505026F4500322000E022233
:10019000012249504C02F3500326F4500222000E73
:1001A000012248504C02F3500226F4500122002A4A
:1001B00001BE05D050360336023601360006000E69
:1001C00050AE0AD0032A02220122015005E102505A
:1001D00003E1035001E1002A4FBE018E4FAE019EA4
:1001E00004D0006A016A026A036A12008E0E006E71
:1001F0004350005E44C002F045C001F0028E005240
:1002000009E0D890025202E1015204E002320132C8
:10021000002EF7D744AE05D0011E021E012AD8B425
:10022000022A80EF01F0D768CD0ED66E406A4050AA
:10023000010822E3036A40501A0FE96E000E032002
:10024000EA6EEFCF41F0036A4050290FE96E000ECD
:100250000320EA6EEF50285202E1275C02E3000E11
:1002600001D0010E41C042F0436E0F0E456E890E63
:10027000446E23D7402ADBD7272AD8B4282A28500F
:10028000000846E2FF0A03E12750900841E2286A8D
:10029000276A406A405001083BE3036A4050290F37
:1002A000016E000E032201C041F003C042F0405035
:1002B000040DF350036A1D0FE96E000E0320EA6E71
:1002C000EFCF43F0ECCF44F0ECCF45F0ECCF46F06D
:1002D00046C04AF045C049F044C048F043C047F02A
:1002E0004E6A4D6A200E4C6E830E4B6E06DF03C0C5
:1002F00046F002C045F001C044F000C043F076D79C
:1003000042C0EAFF41C0E9FF01C0EFFF402AC2D767
:10031000F29436EF00F04550070B006E4530016E49
:10032000013201321F0E011601504624E96E000E03
:100330004720EA6EEFCF01F0002A01D00132002EF3
:10034000FDD71200036A43501C0FE96E000E032014
:10035000EA6EEFCF44F044C045F00F0E476E800EBA
:10036000466ED9DF000E01B0010E016E1200B10E13
:10037000CF6EDF0ECE6E2B50090852E22B6A406A18
:1003800040524EE140C043F0DDDF01C041F0036A5E
:1003900040502C0FE96E000E0320EA6EEF50015C16
:1003A0001FE1D8904034036A250FE96E000E032048
:1003B000EA6EECCF42F0ED52EFCF41F0413C03D07A
:1003C000423C01D00CD0D8904034036A250FE96E2E
:1003D000000E0320EA6E010EEE2601E3EF2A1ED086
:1003E000D8904034036A250FE96E000E0320EA6EB0
:1003F000EC6AED52EF6A036A40502C0F016E000E5A
:10040000032201C041F003C042F040C043F09ADF34
:1004100042C0EAFF41C0E9FF01C0EFFF402AB0D768
:100420002B2A9E9036EF00F08E0E006E30C001F049
:100430002FC002F0036A015209E102C001F0026A12
:10044000080E005E015202E1006A08D0D89001BE99
:1004500004D0023601360006F9D7019E1200800E44
:10046000D8B2351A3A6A3B6A31C039F03550391A78
:100470003050D8B4DCD0386E006E3450D8B4E0D0F0
:10048000385ED8B481D03DE335C03EF03E8E36C0F4
:100490003DF037C03CF03B6AD8903E323D323C32B2
:1004A0003B32382EF8D739AE03D03A80DDD03A90BF
:1004B00038903A88EA6A330EE96EE9D03A9839BE44
:1004C0000AD038A013D03E323D323C323B32002AB3
:1004D000D8B4C5D00BD03EBE0CD0D8903B363C36FD
:1004E0003D363E360006D8B4BAD0F5D73A8C6BD03C
:1004F0003A9C31C039F031AE02D03E8EA9D03E9E3A
:10050000A7D034C038F034C000F03050385E31C06D
:100510003EF03E8E32C03DF033C03CF03B6AD89096
:100520003E323D323C323B32382EF8D739AE03D022
:100530003A829AD03A9238903A8AEA6A370EE96E4D
:10054000A6D03A9A39BE0AD038A013D03E323D32F6
:100550003C323B32002AD8B482D00BD03EBE0CD005
:10056000D8903B363C363D363E360006D8B477D080
:10057000F5D73A8E28D03A9E35C039F035AE02D044
:100580003E8E66D03E9E64D035C03EF03E8E36C074
:100590003DF037C03CF039AE04D03E9E3A8464D082
:1005A0003A943B6A3890EA6A330EE96E70D039BEED
:1005B0001CD031C039F038A006D03E323D323C323A
:1005C0003B32002A4CE03BAE0BD03C2A09E13D2AED
:1005D00007E13E2A05E13E323D323C32002A3FE04F
:1005E0003ABC86D73ABEC7D71CD0800E3E1A3EAE64
:1005F00004D03AD035C039F00AD031C039F03E527B
:1006000006E13D5204E13C5202E1006A21D03EBEC7
:1006100008D0D8903B363C363D363E36002EF7D7D4
:100620001ED039AE02D03E8E13D03E9E11D034C0C3
:1006300000F035C03EF036C03DF037C03CF008D089
:1006400030C000F031C03EF032C03DF033C03CF06D
:100650003EC001F03DC002F03CC003F034D0006A5F
:10066000016A026A036A2FD03B6A3C1E3D1E3E1E91
:100670003B1E3B2A05E13C2A03E13D2A01E13E2ADB
:100680003AB015D73AB256D73AB48AD7B3D7EF5063
:100690003C2605E33D2A03E13E2AD8B43880ED52DA
:1006A000EF503D2603E33E2AD8B43880ED52EF5098
:1006B000EFBE01D0800A3E26D8B038803AB8FED6C8
:1006C0003ABA3FD774D71200EA6A2E0EE96EEF509D
:1006D0000EE0140E016E006A002EFED7012EFBD72D
:1006E000BF0E006E002EFED700D0EF2EF2D771EFB6
:1006F00004F0F86AD09E078EEA6AE96A700ED36E3B
:100700009B8C9B9EB886400EAF6E030EB06EA60EFD
:10071000AC6E900EAB6E286A276A2B6AC150F00B44
:10072000C16E000E0F01386F3C6F396F3A6F3B6F2F
:10073000776A786A796A120E1A6E130E1B6E150E9E
:100740001C6E1D6A1E6A1F6A206A216A226A236A59
:10075000246A256A266A296A2A6A2C6A800E926EA1
:10076000936E300E946E830ED56E370ECD6ECC6ABE
:10077000F28A9D80C00EF2122652D8A48BD025504A
:100780000408D8A087D0196AF2BE198EF29E436A77
:100790000001D8DD19BEF28E306A01C02FF044DEB0
:1007A000196AF2BE198EF29E03C04AF002C049F0E7
:1007B00001C048F000C047F04E6A4D6A4C6A7D0E99
:1007C0004B6E9BDC19BEF28EEACF2FF0E9CF2EF0F4
:1007D000D892330E336E326E316E7F0E306E03C0A0
:1007E00037F002C036F001C035F000C034F037DE1B
:1007F0002FC0EAFF2EC0E9FF03C020F002C01FF0A7
:1008000001C01EF000C01DF0196AF2BE198EF29EE2
:10081000436A98DD19BEF28E015202E0000E01D04B
:10082000010E306A2F6E00DE196AF2BE198EF29E3A
:1008300003C04AF002C049F001C048F000C047F0D0
:100840004E6A4D6A4C6A7D0E4B6E57DC19BEF28EB5
:10085000EACF2FF0E9CF2EF0D892330E336E326EFE
:10086000316E7F0E306E03C037F002C036F001C02B
:1008700035F000C034F0F3DD2FC0EAFF2EC0E9FFF1
:1008800003C024F002C023F001C022F000C021F018
:1008900025D00F01265203E12550040812E226520A
:1008A00010E1255009080DE3330E206E1F6E1E6EF9
:1008B0007F0E1D6E330E246E236E226E7F0E216E10
:1008C0000CD0246A236A226A216A24C020F023C043
:1008D0001FF022C01EF021C01DF000010A0E2E6E76
:0808E000F3D60F0149D7030014
:020000040030CA
:0E00000000F9183C003F81000FC00FE00F40D8
:00000001FF
;PIC18F26K22
;CRC=2629  CREATED="12-9-18 19:39"
