:0400000014EF03F006
:08000800046ED8CF05F0E0CF33
:1000100006F00001E9CF0CF0EACF07F0E1CF08F0DD
:10002000E2CF09F0D9CF0AF0DACF0BF0F3CF12F01C
:10003000F4CF13F0FACF14F0F5CF15F0F6CF16F099
:10004000F7CF17F000C00EF001C00FF002C010F0A3
:1000500003C011F0F2AA30EF00F0F2B4C1EF01F0EA
:100060009DA036EF00F09EB082EF02F00EC000F0CF
:100070000FC001F010C002F011C003F00CC0E9FF86
:1000800007C0EAFF078E08C0E1FF09C0E2FF0AC00F
:10009000D9FF0BC0DAFF12C0F3FF13C0F4FF14C086
:1000A000FAFF15C0F5FF16C0F6FF17C0F7FF0450A2
:1000B00006C0E0FF05C0D8FF10003750070B006EE8
:1000C0003730016E013201321F0E01160150392402
:1000D000E96E000E3A20EA6E016A012A002A01D078
:1000E0000136002EFDD7385203E00150EF1203D045
:1000F000011E0150EF1612003C50D8B471D0006EB2
:100100004050D8B46DD0002604E3810E002668E28A
:1001100004D07F0E005E64E363E03DC044F04150D4
:10012000441A3D8E418E3F504302F4CF46F03E507C
:100130004202F4CF03F0F3CF45F04302F3504626DA
:10014000F4504522000E03223F504202F35046264F
:10015000F4504522000E026A032202223D5043025F
:10016000F3504526F4500322000E02223D50420275
:10017000F3500326F4500222000E016A01223F5080
:100180004102F3504526F4500322000E02220122C0
:100190003E504102F3500326F4500222000E012289
:1001A0003D504102F3500226F4500122002A01BEC4
:1001B00005D045360336023601360006000E45AE40
:1001C0000AD0032A02220122015005E1025003E174
:1001D000035001E1002A44BE018E44AE019E04D0CA
:1001E000006A016A026A036A2BEF02F03C50D8B43D
:1001F000A5D0486E4050D8B4A1D0485E05E37F0E2C
:100200004826D8B09BD006D0810E485ED8A096D0A4
:10021000D8B494D048C000F0016A026A036A476A01
:100220003DC046F0468E3EC045F03FC044F0190E3A
:10023000486E4350445E0DE2010E455E0AE2465EA2
:1002400008E2475E06E2472A462A452A43504426EA
:1002500028D04250455E12E2010E465E0FE2475E34
:100260000DE2472A462A425045264350442619E3C8
:10027000452A17E1462A15E1472A13D04150800943
:10028000465E0EE2010E475E0BE2472A41508009AE
:10029000462642504526E9E3462AE7E1472AE5D7C4
:1002A0000380482E01D00BD0D890443645364636D0
:1002B0004736D8900336023601364936BAD749A0B8
:1002C00006D0D890013202320332493202D0000601
:1002D00035E049BE1ED0D8904436453646364736BE
:1002E0004350445E07E2010E455E04E2465E02E2D0
:1002F000475E1AE34250455E05E2010E465E02E2A9
:10030000475E12E341508009465E03E2010E475EFC
:100310000BE3032A09E1022A07E1012A05E1002A89
:100320000DE00132023203323DC048F04150481A1C
:1003300048AE02D0018E06D0019E04D0006A016A48
:10034000026A036A42EF02F08E0E006E3850005EC1
:1003500039C002F03AC001F0028E005209E0D89094
:10036000025202E1015204E002320132002EF7D7BC
:1003700039AE05D0011E021E012AD8B4022A4BEF65
:1003800002F0D7689B0ED66E356A3550010830E30F
:10039000036A3550280FE96E000E0320EA6EEF5015
:1003A000275C13E2036A35501A0FE96E000E032032
:1003B000EA6EEFCF36F036C037F0010E386E0F0E12
:1003C0003A6E890E396E79DE11D0036A35501A0FF4
:1003D000E96E000E0320EA6EEFCF36F036C037F03C
:1003E000386A0F0E3A6E890E396E67DE352ACDD720
:1003F000272A2750C80857E2276A356A355001086E
:1004000052E3036A3550280F016E000E032201C02B
:1004100036F003C037F03550040DF350036A1D0F5A
:10042000E96E000E0320EA6EEFCF38F0ECCF39F022
:10043000ECCF3AF0ECCF3BF03BC03FF03AC03EF09F
:1004400039C03DF038C03CF0436A426A7A0E416ED2
:10045000880E406E51D600C038F001C039F002C09D
:100460003AF003C03BF003C03FF002C03EF001C0D1
:100470003DF000C03CF0436A426A480E416E850E72
:10048000406EB4D603C03BF002C03AF001C039F070
:1004900000C038F059D737C0EAFF36C0E9FF01C0C5
:1004A000EFFF352AABD7F29436EF00F03A50070B46
:1004B000006E3A30016E013201321F0E01160150FA
:1004C0003B24E96E000E3C20EA6EEFCF01F0002ADB
:1004D00001D00132002EFDD71200036A38501C0FE4
:1004E000E96E000E0320EA6EEFCF39F039C03AF022
:1004F0000F0E3C6E800E3B6ED9DF000E01B0010E78
:10050000016E1200B10ECF6EDF0ECE6E2B5203E1E4
:100510002A50090853E22B6A2A6A356A35524EE19D
:1005200035C038F0DADF01C036F0036A35502C0FE1
:10053000E96E000E0320EA6EEF50015C1FE1D890D7
:100540003534036A250FE96E000E0320EA6EECCF06
:1005500037F0ED52EFCF36F0363C03D0373C01D0C8
:100560000CD0D8903534036A250FE96E000E0320B5
:10057000EA6E010EEE2601E3EF2A1ED0D890353444
:10058000036A250FE96E000E0320EA6EEC6AED5255
:10059000EF6A036A35502C0F016E000E032201C072
:1005A00036F003C037F035C038F097DF37C0EAFFC8
:1005B00036C0E9FF01C0EFFF352AB0D72A2AD8B4E8
:1005C0002B2A9E9036EF00F08E0E006E2FC001F0A9
:1005D0002EC002F0036A015209E102C001F0026A72
:1005E000080E005E015202E1006A08D0D89001BEF8
:1005F00004D0023601360006F9D7019E1200EA6ADD
:100600002E0EE96EEF500EE0140E016E006A002E01
:10061000FED7012EFBD7BF0E006E002EFED700D0F6
:10062000EF2EF2D7B6EF03F0F86AD09E078EEA6A93
:10063000E96A700ED36E9B8C9B9EB886400EAF6E9F
:10064000030EB06EA60EAC6E900EAB6E276A2B6AD0
:100650002A6AC150F00BC16E000E0F01386F3C6F5B
:10066000396F3A6F3B6F776A786A796A120E1A6E41
:10067000130E1B6E140E1C6E1D6A1E6A1F6A206A02
:10068000216A226A236A246A256A266A286A296AF4
:100690002C6A800E926E936E300E946E830ED56E21
:1006A000370ECD6ECC6AF28A9D80C00EF2122652B1
:1006B00036E12550040833E3196AF2BE198EF29E22
:1006C000386A00010ADF19BEF28E015202E0010E03
:1006D00001D0010E2F6A2E6E77DF03C020F002C01A
:1006E0001FF001C01EF000C01DF0196AF2BE198E85
:1006F000F29E386AF2DE19BEF28E015202E0010E5D
:1007000001D0010E2F6A2E6E5FDF03C024F002C0FD
:1007100023F001C022F000C021F025D00F012652A5
:1007200003E12550040812E2265210E12550090881
:100730000DE3206A1F6A400E1E6E7F0E1D6E330E83
:10074000246E236E226E7F0E216E0CD0246A236AE3
:10075000226A216A24C020F023C01FF022C01EF0AC
:1007600021C01DF000010A0E2E6E49D70F019FD740
:02077000030084
:020000040030CA
:0E00000000F9183C003F81000FC00FE00F40D8
:00000001FF
;PIC18F26K22
;CRC=5D30  CREATED="12-9-18 16:39"
